:10000000C097FF1F413E0100F984000001850000F8
:10001000098500001185000019850000000000001E
:10002000000000000000000000000000218500002A
:10003000298500000000000031850000398500009E
:1000400041850000578500006D8500008385000014
:1000500099850000AF850000C5850000DB850000A4
:10006000F1850000078600001D8600003386000031
:10007000498600005F860000758600008B860000C0
:10008000A1860000B7860000CD860000E386000050
:10009000F98600000F870000258700003B870000DD
:1000A00051870000678700007D870000938700006C
:1000B000A9870000BF870000D5870000EB870000FC
:1000C000018800001B880000358800004F88000070
:1000D00069880000838800009D880000B7880000C0
:1000E000D1880000EB880000058900001F8900000E
:1000F00039890000538900006D890000878900005C
:10010000A1890000BB890000D5890000EF890000AB
:10011000098A0000238A00003D8A0000578A0000F7
:10012000718A00008B8A0000A58A0000BF8A000047
:10013000D98A0000F38A00000D8B0000278B000095
:10014000418B00005B8B0000758B00008D8B0000E5
:10015000A38B0000B98B0000CF8B0000E58B000063
:10016000FB8B0000118C0000278C00003D8C0000F0
:10017000538C0000698C00007F8C0000958C00007F
:10018000AB8C0000C18C0000D78C0000ED8C00000F
:10019000038D0000198D00002F8D0000458D00009B
:1001A0005B8D0000718D0000878D00009D8D00002B
:1001B000B38D0000C98D0000DF8D0000F58D0000BB
:1001C0000B8E0000218E00003D8E0000538E00003B
:1001D0006D8E0000838E00009D8E0000B38E0000A7
:1001E000C98E0000DF8E0000F58E00000D8F00002C
:1001F000238F0000398F0000518F0000678F0000AF
:100200007D8F0000938F0000A98F0000BF8F00003A
:10021000D58F0000EB8F00000190000017900000C8
:100220002D90000043900000599000006F90000056
:10023000859000009B900000B1900000C7900000E6
:10024000D9480100DD480100E1480100E54801000E
:10025000E9480100ED480100F1480100F5480100BE
:10026000F9480100FD48010001490100054901006C
:10027000094901000D49010011490100154901001A
:10040000FFFFFFFFFFFEFFFFFFFFFFFFFFFFFFFFFD
:10041000FFFFFFFFFFFFFFFFFFFFFFFFFFFFFFFFEC
:100420002DE9F04F83B0FD480078FD4909788842F6
:1004300040F00281FB480078FB49097880EA010519
:1004400005F00700002800F09B80F8480078F34989
:10045000087002F07DFE0120F54909688871F548B1
:100460000078F34909680860FF20F349096888713A
:10047000F1480068C079ED490870E9480078EE4914
:100480000968C87105F00100002824D005F0390082
:10049000E44909784840E34908701C22E749E848E4
:1004A00002F084FE0422E749E74802F07FFEFC20C8
:1004B000DF4909688880E04909688880E048007A57
:1004C00000F00F00E149085CDA4909780844DA498C
:1004D0000968086048E005F00200002827D005F010
:1004E0004200D04909784840CE4908700E22D849C8
:1004F000D84802F05BFE0422D249D34802F056FEEF
:10050000FD20CB4909688880CB4909688880C948A3
:1005100000781630C84909680860C6480078163067
:10052000CC498881C3480078163048811CE005F02A
:100530008400BC4909784840BA490870FE20BC498B
:1005400009688880BC4909688880BA4800781630F4
:10055000B94909680860B74800781630BE49C883B1
:10056000B448007816304880AE4800784007400E06
:10057000BA490870AF48007802F058FE02F0CDBDCD
:10058000B7480088002831D0AA48007802F04EFE13
:10059000A6480078A149087002F0DAFDA548007865
:1005A000A349096808600120A14909688871FF20F2
:1005B000A14909688871A0480068C0799B49087002
:1005C000974800789C490968C871FB2098490968D8
:1005D0008880994909688880A148008896490968F7
:1005E000086000209E49088002F097BD02F048FE96
:1005F0009C489D4943680268511843F100024260DB
:100600000160007900F01F00964908719748006862
:1006100000F5C860954908600846C078EF2804DDF9
:100620000846C07800F00F00C87002F04FFE0120AD
:1006300002F056FE02F071BD7D48006887887C4854
:100640000068006802908A4902980968884242F06E
:1006500048859DF80800874909780844854908704D
:10066000734800688079022880F2618570480068CC
:100670008079002800F0B480FB2F1ED16E480068FE
:1006800000686C49097808446B49096808606A4841
:1006900000680168084602F0C9FD02F06BFE02F036
:1006A000A1FE7548006828B17348006880470020A3
:1006B0007149086003B0BDE8F08F5E48007802F031
:1006C000B5FD584800785849097880EA0105554831
:1006D000007800F00100E8B105F00100A0B905F0D4
:1006E0003800B8B11C225549554802F05FFD04227C
:1006F0005449554802F05AFD05F038004949097837
:1007000048404849087005E04648007820F001005C
:10071000444908704348007800F00200E8B105F051
:100720000200A0B905F04000B8B10E22484949487E
:1007300002F03CFD04224349434802F037FD05F036
:1007400040003849097848403649087005E0354886
:10075000007820F00200334908703248007800F039
:10076000040040B105F0040028B12E48007820F0C4
:1007700004002C4908702B4800784007400E374988
:10078000087007F44070A8B1F8B200EBC0003B4914
:10079000096801EB00103A49086008460068B0F8A3
:1007A0008C00384908800846008822490978401A98
:1007B000344908802048006800681E490978401ABA
:1007C0001D4909680860002019490968887119489D
:1007D000007817490968086002F052FD02F07EBCFB
:1007E000022002F023FD02F037FE2748007A40F095
:1007F000C0016B2002F044FE02F096FE02F0A2FE61
:1008000007F44070002800F0AA8100201F490870FA
:100810001F480078F0BB07F480703CE07681FF1F32
:100820006A660000C881FF1FC781FF1F7581FF1F17
:100830007881FF1F5E82FF1F7C81FF1F8888FF1F5A
:100840002C88FF1FC281FF1FBE81FF1F72C20000E4
:10085000F288FF1FE488FF1F0089FF1FC681FF1F6A
:10086000CA81FF1FA881FF1F400D03005482FF1F94
:100870005882FF1F8281FF1FD881FF1F3081FF1F19
:100880008481FF1F8881FF1F938AFF1F5481FF1FF0
:100890008181FF1F22E038B102F062FE02F06EFE9D
:1008A0002820FB49087004E002F09AFE3220F84943
:1008B0000870F8480088801EF6490880F6480068ED
:1008C0000068801EF449096808600320F34909683C
:1008D00088710220F1490968086003E0012002F0F4
:1008E000B1FE00BF00BF0422ED480068011D7A2060
:1008F00002F0C0FEEA48006890F87500E949087007
:10090000E7480068007FE64909682E31085C242822
:1009100008D1E3480068B0F856000112084602F01A
:1009200057FF06E0DE48006890F85610084602F0CF
:100930004FFFDB480068007FD94909682E310A5C07
:10094000104602F05DFFD6480068007FD449096870
:100950002E31085CD4490A5C104602F063FFD0488F
:10096000006802F06DFFCE480068083002F072FFA8
:10097000CB48006890F87D00022803D1012002F0E6
:1009800071FF02E0002002F06DFF02F089FFC54810
:10099000007800F0030038B11822C148006800F167
:1009A0005801832002F066FE02F088FF07F4807091
:1009B000002800F0AA80F8B200EBC000BB4909682B
:1009C00001EB001AF8B2BA49096851F820B09AF858
:1009D0000B4004F0800068B19AF80B0040F0010071
:1009E0008AF80B00BBF1000F04D1F9B2084602F0FF
:1009F0008DFF834604F00C04BBF1000F76D0BBF8EA
:100A00000400EF285BD19AF80B0000F001000028E9
:100A100055D09BF80B0020B101283AD003284CD1C7
:100A200047E0A448007800F0070048B1A1480078EA
:100A300000F00700C0F10A0099490968888403E0C2
:100A40000A2097490968888495480068808C9449F1
:100A50000968098C884205DD91480068008C90493E
:100A6000096888848E480068808C0BF10801ABF817
:100A70000D00BAF81A0090490978C91C0844029080
:100A80000BF108010298ABF815000298AAF82C00A7
:100A900014E0BAF81A0088490978C91C0844029081
:100AA0000BF108010298ABF811000298AAF82C008B
:100AB00004E001208AF8530000E000BF00BFF8B254
:100AC0007E49096801EBC000406830B9F8B27C4942
:100AD000096801EBC000406808B144F01004E1B2BD
:100AE000FAB2104602F07EFF0BE0FFE704F01F00B1
:100AF00040F00100734988700020C870881C03F022
:100B000073F98AF80B4002F0E9BA6648007800F001
:100B1000030088B16248006890F87C0040F08000D3
:100B20005F49096881F87C0005225D48006800F192
:100B300078017E2002F09EFD5A48007800F0030103
:100B4000084603F05DF95648006890F87C0020F0F4
:100B500080005349096881F87C0002F0BFBA5A4806
:100B600002F078FE042259497A2002F083FD002128
:100B70009B2002F085FCFC2F07D0FD2F00F0E880C1
:100B8000FE2F40F0D18200F0BFB95148407800EB11
:100B9000C0004649096801EB0010414908604D4812
:100BA000007800F01000D0B94948407842490978EF
:100BB00088420DD046484178084603F031F9444850
:100BC0004178084603F0CEF93B4800784049487028
:100BD00003F0E2F903F0EEF903F030FA6AE52C488D
:100BE0000078002853D13A4800783B49085C272810
:100BF00006D1374840880112084602F0E9FD04E0BA
:100C000033488178084602F0E3FD02F0B7FC304833
:100C1000007831490A5C104602F0F2FD2C48017858
:100C20002D48415C2048425C104602F0FBFD2848FC
:100C300000782A49085C264908700846007A21494C
:100C400088702348057A05F00F05012D03D10B307C
:100C500001900C240FE02248007800F0080028B131
:100C6000204801901C3890F83B4004E01E48019059
:100C70001C3890F83B401349CC70881C03F0B4F842
:100C80001348407AA0BB194803F0F2F934E058E069
:100C90008181FF1F8881FF1F7C81FF1F7881FF1FDB
:100CA0008481FF1F8081FF1FA08AFF1F3081FF1FEB
:100CB0004081FF1F8281FF1F6B6600003481FF1F90
:100CC0003881FF1F3C89FF1FB481FF1FB081FF1FC8
:100CD0002C88FF1FC681FF1FF6C20000BE81FF1FC8
:100CE000C881FF1FA488FF1F4888FF1FCD82FF1FF8
:100CF000FFE7FC4803F0BCF9002002F0B3FD022D31
:100D000005D103F0C3F90A20F749087006E002F0A4
:100D1000C7FD02F025FC0B20F3490870019803F091
:100D2000C3F9F24800680068801EF049096808604D
:100D30000320EF49096888710220ED4909680860BD
:100D400003E0022002F07EFC00BF00BF00F0EDB91E
:100D5000E848007800F0200030B903F01DF903F0F6
:100D600029F903F06BF9A5E4DF480078002840F08A
:100D7000C480E1480078E149085C272806D1DE48B4
:100D800000890112084602F023FD04E0DA48017AE6
:100D9000084602F01DFD02F023FCD7480078D74931
:100DA0000A5C104602F02CFDD3480178D348415C20
:100DB000D348425C104602F035FD002002F052FD9F
:100DC000CD48407828B11420C749087002F068FD6A
:100DD00004E01520C449087003F058F9C64880881B
:100DE000C5494989884278DD00200290BF480068E3
:100DF000C079C449097888422ED0BC480068C079BF
:100E0000C149096851F83000012839D9B74800684C
:100E1000C079BD49096851F83000401E0290B648BB
:100E20008088B5494989401A0299884205D2B2485A
:100E30008088B1494989401A0290AF484088AE493C
:100E40008989401A029988421AD2AB484088AA4937
:100E50008989401A029013E0A7488088A6494989E9
:100E6000401A0290A4484088A3498989401A0299EF
:100E7000884205D2A04840889F498989401A02903B
:100E8000029850B39C488089029908449A49888105
:100E90000846408902990844974948819348006868
:100EA0000068029908449149096808608F48006801
:100EB000C0799449097888420FD08C480068C0797D
:100EC0009149096851F830000299411A8748006831
:100ED000C0798D4A126842F8301084480068006872
:100EE000801E8249096808600220814909680860FB
:100EF00003207F490968887103E0032002F0A2FB08
:100F000000BF00BF00F011B98048007800EBC000BE
:100F10007F49096801EB00107E4908607548007838
:100F200000F04000E8B97C48007800F0040080B987
:100F300076480078FF280CDA74480178084602F0F9
:100F40006FFF72480178084603F00CF8FF206F49E4
:100F5000087003F021F803F02DF803F06FF8FFF7A5
:100F6000A9BB6148007800287ED168484078634971
:100F7000085C272806D16548408A0112084602F01D
:100F800027FC04E06148817C084602F021FC02F065
:100F900027FB5E48407859490A5C104602F030FC55
:100FA0005A4841785548415C5548425C104602F029
:100FB00039FC1E204C490870002002F053FC02F05E
:100FC0006FFC5248C0885149498888427ADD002028
:100FD000029046480068C0794A49097888422ED074
:100FE00042480068C0794849096851F83000012832
:100FF00039D93E480068C0794349096851F8300042
:10100000401E02904148C08840494988401A0299D0
:10101000884205D23D48C0883C494988401A029020
:101020003A4880883949C98B401A029988421AD2B5
:10103000364880883549C98B401A029013E03348FE
:10104000C08832494988401A0290304880882F4928
:10105000C98B401A0299884205D22C4880882B49B6
:10106000C98B401A029000E058E0029850B327481C
:10107000C08B029908442549C883084640880299D4
:1010800008442249488019480068006802990844C9
:1010900016490968086015480068C0791949097837
:1010A00088420FD011480068C0791749096851F883
:1010B00030000299401A0D490968C979124A12682C
:1010C00042F83100094800680068801E0749096835
:1010D000086002200649096808600320044909687D
:1010E00088711FE09081FF1F8181FF1F7C81FF1F9E
:1010F0007881FF1FC681FF1FE488FF1FF6C2000032
:10110000A08AFF1F6A6600004881FF1F0089FF1F39
:101110003081FF1F8481FF1FC781FF1F042002F061
:1011200091FA00BF00BF00E000BF01F0D7BFF84850
:1011300000688079FF2800F0AE87F5480068807964
:10114000032821D1012002F071F8F24800786628C6
:101150000BD1F1480079F149497A0843EE49087109
:101160000522732002F086FA06E0EC48407A00F08F
:101170003F01772002F084F90120E5490968086001
:101180000220E3490968887107F44070002800F0E4
:10119000648407F48070002800F0ED81E048007856
:1011A0002838062880F0E181DFE800F003141504F8
:1011B0003BFE00BFDB480088401EDA490880DA4861
:1011C00000680068401ED8490968086002F07AFF8C
:1011D00000F0CFB900BFD4480068006801280FD0E4
:1011E000D0480088401ECF490880CF48006800687A
:1011F000401ECD490968086002F064FF00F0B9B9EB
:1012000002F044FF02F028F9C8480068C07A00F0F4
:101210000C00C6490968C872F9B2084602F074FFAA
:1012200000BF0322C249A62002F086FFBE48006824
:10123000C079C0490978884212D0BB480068C0799B
:10124000BD49096851F83000B74909680968491E65
:101250000144B5480068C079B74A126842F83010B6
:101260000120B14909680860A9480068C57902F001
:1012700081F8AC4800880290AC4B1B6893F8802042
:10128000AA4B1B6893F88010A84B1B6893F87E004C
:10129000002303F02BF88146A8480078801C4844BE
:1012A00000F0FF090026B1E0A0480068B0F888000F
:1012B0009E490968498A884206DA9C480068B0F865
:1012C0008A00B0F5FA4F00DBA1E09848006890F87A
:1012D000540000F00100A8B394480068408B3044EB
:1012E00092490968898D88422CD19048006890F80D
:1012F000540020F001008D49096881F854008B48A2
:10130000006890F8540040F002008849096881F8AC
:10131000540086480068008C84490968C883834863
:101320000068808C00EB8000029901EB4000029085
:1013300006227E48006800F126017C4800680E30D5
:1013400001F034FF029860B978480068C0890290C3
:1013500002F0B4FA7548006802F072FA701CC6B266
:1013600054E074480078854237DA7348006800EB2F
:10137000C5006D4908600846006800680299884207
:1013800031D3694800688079022817DA6648006816
:10139000006802994944884210D96348006800688F
:1013A00002994944401A00E0D6E05F4909680860A4
:1013B00000205C490880701CC6B228E05B480068C9
:1013C000C08902990844029002F078FA57480068F0
:1013D00002F036FA701CC6B205E0002051490880C0
:1013E000701CC6B213E05048006800680299884239
:1013F0000CD84D480068C5794B48006800680299D0
:10140000081A029048480068414908604CE700BF4C
:10141000434800782C2805D102F0A6FF434909680B
:10142000487702E02C203E49087040480068B0F838
:101430008A00B0F5FA4F08DB2D20394908702220C8
:101440003A49096881F8220093E038480068B0F80A
:10145000880036490968498A884246DA3348006874
:10146000408B304431490968488335480078284921
:101470000968C871304800683149097800EBC1003B
:101480002349086001200968887121490298096888
:1014900008601F480068C0792749096801EBC0004F
:1014A0002149086008460068C079254908701E482F
:1014B0000068C5711C480068C0F80090FF201A49F8
:1014C000096888711248006887801748006887801B
:1014D000F9B2084602F092FF14480068C089114929
:1014E000098808440F49088033E02D200C49087012
:1014F0000E4800680078032802D0422822D100E07C
:1015000026E022200949096881F8220020E0000035
:101510007881FF1FCB82FF1FA881FF1F938AFF1FC7
:101520008181FF1F8881FF1F7C81FF1F8481FF1F36
:101530007F82FF1F6A6600004881FF1F5E82FF1FD7
:101540007581FF1F0820FE49096881F8220000BF4D
:1015500000BF01F0FDFD0CE0FA4800680168084694
:1015600001F064FE01F006FF03E0052002F06AF8D6
:1015700000BF01F0B3BDF44800783238062880F08F
:101580006682DFE800F00503040621FC00BF00BF0F
:1015900000BFEC4800680068012804D102F076FD25
:1015A00001F05AFF0FE0E9480088401EE749088033
:1015B000E44800680068401EE2490968086002F0DB
:1015C00081FD00F048BA00BF0322E149A62002F0E5
:1015D000B3FDDC480068C079DE490978884212D042
:1015E000D8480068C079DC49096851F83000D5490D
:1015F00009680968491E0844D2490968C979D64A68
:10160000126842F831000120CE490968086002F0F2
:1016100059FDD2480068C57901F0ACFECB4800887E
:101620000290C74B1B6893F88020C54B1B6893F84A
:101630008010C34B1B6893F87E00002302F056FE17
:101640008146C7480078801C484400F0FF0902F03A
:1016500045FF02F07BFF0446002600F040B9B84881
:101660000068B0F88800B6490968498A884206DAF5
:10167000B3480068B0F88A00B0F5FA4F01DB00F01B
:101680002FB9AF48006890F8540000F0010090B303
:10169000AB480068408B3044A9490968898D88426D
:1016A00029D1A748006890F8540020F00100A4490F
:1016B000096881F85400A248006890F8540040F08E
:1016C00002009F49096881F854009D480068008C19
:1016D0009B490968C8839A480068808C029908442D
:1016E000029006229648006800F12601944800689E
:1016F0000E3001F05BFD029888B991480068C089FE
:1017000002990844029002F0D9F88D48006802F06E
:1017100097F802F01BFF0446701CC6B2DFE08D484C
:10172000007885427EDA8C48006800EBC500854968
:101730000860084600680068029988426BD98148B1
:1017400000688079022855DA85480078C01C20445A
:10175000029988424ED282480078C01C20440299E7
:10176000A1EB00087E480078C01C2044774908801F
:101770004FF6FF7000EA44047149096800E05DE13A
:1017800081F8554004EB090084B26D480068007888
:10179000022805D16A480068C07A204484B20DE06E
:1017A0006748006890F8540000F0020028B16448CF
:1017B000006890F82300204484B200BF00BF604856
:1017C0000068C089614909880844A04212DD5D486B
:1017D0000068006808EB040188420BD9594800688A
:1017E000006808EB0401401A564909680860701C3B
:1017F000C6B275E052480068C08902990844029058
:1018000002F05CF84E48006802F01AF802F09EFE02
:101810000446701CC6B24B480068006802998842B2
:101820005DD800E00DE047480068C579454800688C
:1018300000680299081A0290424800684749086007
:101840004DE047480078C01C20440299884211D3DB
:101850003B480068C08902990844029002F02EF8C3
:101860003748006801F0ECFF02F070FE0446701C7F
:10187000C6B234E03A480078C01C20440299A1EB7B
:10188000000837480078C01C2044304908804FF6D3
:10189000FF7000EA44042A49096881F8554004EBC6
:1018A000090084B2264800680078022805D124483F
:1018B0000068C07A204484B20DE02148006890F8A6
:1018C000540000F0020028B11D48006890F8230081
:1018D000204484B200BF00BF701CC6B200E0BEE668
:1018E00000BF19480078362805D102F03DFD1449A3
:1018F0000968487702E036201349087010480068EC
:10190000B0F88A00B0F5FA4F08DB37200E490870AE
:1019100022200B49096881F822009CE008480068F1
:10192000B0F8880006490968498A88426ADA04489A
:101930000068408B3044024909684883094813E035
:101940008481FF1F7C81FF1F8181FF1F8881FF1F12
:101950007F82FF1F6A6600004881FF1F7881FF1F9A
:101960005E82FF1F7581FF1F0078FE490968C871FC
:10197000FD480068FD49097800EBC100F94908609D
:10198000012009688871F7480068C0F80080F548B0
:101990000068C079F449096801EBC000F4490860A7
:1019A00008460068C079F1490870F1480068C571BF
:1019B000F0480068C089F04909880844A04207DC63
:1019C000EC480068C089EC4909880844401E84B28C
:1019D000E74800680460FF20E54909688871E1482C
:1019E00000688780E24800688780F9B2084602F004
:1019F00005FDE0480068C089DF4909880844DE49E0
:101A0000088018E03720DD490870DA48006800785F
:101A1000022802D0422807D100E00BE02220D5495D
:101A2000096881F8220005E00820D249096881F898
:101A3000220000BF00BF01F08BFB0CE0CC48006827
:101A40000168084601F0F2FB01F094FC03E0062077
:101A500001F0F8FD00BF01F041BBFC2F07D0FD2FC6
:101A600000F01782FE2F40F0108300F092BAC348B6
:101A700000780C2800F0E3810E2804D00F2840F0F5
:101A8000F48100F0B5B9BA4800680168084601F071
:101A9000CDFBB4480068C57901F06CFCB54800681E
:101AA0008089093002900020B249096888810023AA
:101AB0001B221146012002F019FC8146B048007833
:101AC000801C484400F0FF0902F008FD02F03EFDD2
:101AD000044600260DE1A7480068B0F88800A54933
:101AE0000968498A884200DB04E1A64800788542FB
:101AF0007DDA9D48006800EBC5009D4908600846F6
:101B0000006800680299884272D399480068807919
:101B100002287FDA9A480078C01C20440299884243
:101B20002CD297480078C01C20440299A1EB0008F1
:101B300093480078C01C20448F4908808D48006875
:101B4000C07A00EB440084B28A49096881F85540A4
:101B500004EB090084B286480068006808EB0401C1
:101B6000884257D982480068006808EB0401401A8F
:101B70007F4909680860701CC6B2BBE07D480068F8
:101B8000C0890299084402907A480068B0F8880039
:101B900078490968C98B084476490968A1F8880022
:101BA0007448006801F04CFE02F0D0FC0446701C42
:101BB000C6B273480078C01C20440299A1EB00080B
:101BC0006F480078C01C20446B4908806948006851
:101BD000C07A00EB440084B26649096881F8554038
:101BE00004EB090084B262480068006802E034E057
:101BF00072E00FE008EB040188420BD95C480068F2
:101C0000006808EB0401401A594909680860701C13
:101C1000C6B26FE01AE057480068C08902990844CC
:101C2000029054480068B0F8880052490968C98B8E
:101C3000084450490968A1F888004E48006801F03E
:101C4000FFFD02F083FC0446701CC6B248480068E1
:101C5000006802998842DED23EE049480078C01C04
:101C60002044029988421AD342480068C0890299E8
:101C7000084402903F480068B0F888003D49096870
:101C8000C98B08443B490968A1F8880039480068B5
:101C900001F0D6FD02F05AFC0446701CC6B238486A
:101CA0000078C01C20440299A1EB00083448007859
:101CB000C01C2044304908802E480068C07A00EBE0
:101CC000440084B22B49096881F8554004EB0900AF
:101CD00084B2701CC6B20DE025480068C57924485E
:101CE000006800680299081A0290214800681D499E
:101CF0000860F0E600BF1F480068B0F888001D4982
:101D00000968498A884269DA1A480068408B304479
:101D10001849096848831548007812490968C8714C
:101D2000114800681149097800EBC1000D490860AD
:101D30000120096888710B480068C0F800800948D4
:101D40000068C0790849096801EBC00008490860CB
:101D500008460068C0790549087005480068C571E3
:101D6000034811E07881FF1F4881FF1F7581FF1F25
:101D70007C81FF1F8481FF1F8881FF1F8181FF1FDE
:101D80005E82FF1F6A66000000680460FF20FE4953
:101D900009688871FD48407840F40070FC49096882
:101DA0008880FA48407840F40070F74909688880D4
:101DB000F8480078F5494870F7480068C089F74945
:101DC00009880844F549088008460088F2490968EE
:101DD000A1F88C00FF20F149088003E00120EE49C2
:101DE0000968087001F0B4F90F20ED4908704EE061
:101DF000E5480068C079EB490978884212D0E2488A
:101E00000068C079E849096851F83000DE4909687E
:101E10000968491E0144DC480068C079E24A12683A
:101E200042F830100120D84909680860D648006897
:101E30000168084601F0FAF901F09CFA27E0D2485F
:101E400000680068012806D102F020F901F004FBC7
:101E500001F090FA08E0CC4800680068401ECA49CA
:101E60000968086002F02EF911E0C74800680068B0
:101E7000012802D101F07EFA08E0C348006800683A
:101E8000401EC1490968086002F01CF900BF00BF8C
:101E9000FFE002F017F9C24800781438052872D222
:101EA000DFE800F003043B3C4D0000BFB64800688B
:101EB0000068062807D9B44800680068401EB24987
:101EC0000968086063E01820B5490870AE480068EA
:101ED0000068401E02900120AB490968086002F0CA
:101EE000D5F801F0B9FA01F045FAB04840890299F5
:101EF000401AAE494881084680890299401AAB4988
:101F00008881A148006838B19F480068006802993C
:101F100008449D490968086039E000BF9A48006894
:101F20000068012807D9984800680068401E964953
:101F3000096808602BE018209949087000BF924892
:101F400000680068401E029001208F4909680860FF
:101F500001F010FA954840890299401A9349488146
:101F6000084680890299401A90498881864800680D
:101F700038B18548006800680299084482490968B8
:101F8000086004E0FFE7072001F05CFB00BF00BF32
:101F90007FE002F097F8824800781E2806D01F28BC
:101FA00065D0202839D0212869D13DE076480068E5
:101FB0000068062829D121207949087072480068F4
:101FC0000068401E02907A4840880299401A784979
:101FD00048800846C08B0299401A7549C883012081
:101FE00069490968086002F051F801F035FA01F01A
:101FF000C1F96548006878B16348006800680299D3
:10200000084461490968086006E05F4800680068A4
:10201000401E5D490968086035E05F480068008A35
:102020005D490968888100BF574800680068401E04
:1020300002905F4840880299401A5D4948800846EE
:10204000C08B0299401A5A49C88301204E49096839
:10205000086001F08FF94C48006838B14A480068C0
:102060000068029908444849096808600BE046483E
:1020700000680068401E44490968086003E00820C1
:1020800001F0E0FA00BF00BF03E0092001F0DAFA36
:1020900000BF01F023B807F44070E8B3404800786F
:1020A00033280ED006DC282809D02B2808D02D286C
:1020B0001ED10BE0342805D0372819D107E000BF26
:1020C00000BF00BF0A2001F0BDFA14E000BFF9B262
:1020D0003148006890F82220104602F053FAF9B215
:1020E000084602F061FAF9B2084601F03BFF00BF72
:1020F00001F040F900BF00BF2E4800782949097857
:1021000088423FD022480068006828283AD82048F2
:1021100000680068401E00E058E002901C4800681B
:102120008088FD2802D0FE281AD10CE01F48808943
:10213000029908441D49888108464089029908444B
:102140001A4948810FE01A48C08B0299084418497F
:10215000C88308464088029908441549488002E02F
:102160000020029000BF00BF029858B106480068E6
:10217000006802990844044909680860012004497C
:102180000968086018E000007C81FF1F2C88FF1F91
:102190007881FF1F6B6600008481FF1F8881FF1F0D
:1021A0008181FF1F6A6600004881FF1FE488FF1FCE
:1021B0000089FF1F7681FF1F01F040FFF84800886B
:1021C000F8490968A1F88C0000F002BDFB2F00F06F
:1021D000F584FC2F06D0FD2F7ED0FE2F40F0F38437
:1021E00000F022BBF04800780D2802D00E2805D15F
:1021F00000E004E00B2001F025FA00E000BF00BF82
:10220000EA48007800F01000002866D0E848007A1C
:1022100000F00F00E749085CE7490978891C084489
:10222000C6B2E6480068C479E4480068C579E04869
:1022300080694FF6FC710840DD49886137E0E0486D
:102240000078854200D133E0DE48006800EBC5002D
:10225000DD490860084600688079022818DA0846D7
:1022600000680068B04213D3D148007800B11FE085
:10227000CF484069CE498969884200D218E0D248E7
:1022800000680068CA4949693144884200D90FE0B2
:10229000CD480068C579CC480068C8490860C44882
:1022A0008069C949096809680844C1498861C6E765
:1022B00000BFC6480078C1490968C871C1480068B4
:1022C000C249097800EBC100BC49086001200968D7
:1022D0008871BA48006801E0E6E0C4E0C079B94915
:1022E000096801EBC000B849086008460068C07979
:1022F000B6490870B4480068C571B01EC6B2B04691
:10230000B14800680660FC20AF4909688880FF205A
:10231000AD4909688871AA48007885421CD0A44854
:10232000007810B1012002903AE0A14840693328BA
:1023300002D10120029033E09D4840699C4989699F
:10234000884206D99A48406999498969401A029099
:1023500026E00120029023E095484069332803D10C
:10236000C6F1110002901BE09148007810B10120E5
:10237000029015E08E4840698D49896988420DD9DF
:102380008B4840698A498969401A029090480078D0
:1023900000F03F0002990844029001E00120029001
:1023A000864902980968086087480068C0798449AE
:1023B0000978884210D084480068C079814909684A
:1023C00051F8300002993144411A7F480068C079C1
:1023D0007C4A126842F8301075488069029941447D
:1023E0000844734988610846007848B9084640693E
:1023F000332801D000208861764800786C49087045
:102400006B488069B0F5205F22D3694840787249F3
:10241000096851F820B00421584602F06FF90020F5
:10242000634949786C4A126842F821005F48007895
:1024300020F010005D4908706848007820F0010025
:10244000664908706648007820F001006449087009
:1024500000F07EFE00F08EFF5848006801680846D4
:1024600000F0E4FE1EE05148007800F01000C8B90A
:102470004F4840785B49097888420DD04C484178F4
:10248000084601F0CDFC4A484178084601F06AFD53
:10249000544800784649487001F07EFD00F06AFF1C
:1024A00001F0CCFD00F093BB3F480078172802D123
:1024B00000F0D2FF00E000BF00BF3C48007800F011
:1024C0002000002800F0A7813C4800683E490860D1
:1024D00039480078173002904FF0000858E13A4828
:1024E00000683649086038480068C5793648006891
:1024F000C07933490978884278DA30480068C07971
:102500003049096801EBC0002F490860084600689F
:10251000807902286BDA08460068006802998842D0
:102520007ED93148808902990844401E2E49498845
:1025300088421DD22C48408902990844401E2A49ED
:102540008988884214D228488089029908442649FB
:1025500088810846408902990844234948811A48DD
:10256000006800680299401A17490968086010E17C
:102570001D48808902990844401E1B4949888842A9
:102580005CD336E0184880891749498888422FDB98
:102590001548808914494988401A1349888128E0E0
:1025A0008881FF1F8481FF1F8181FF1FC681FF1F5C
:1025B0002C88FF1F72C200005E82FF1F7881FF1F00
:1025C0006A6600004881FF1F7C81FF1F7581FF1F25
:1025D0009C81FF1FBE81FF1F4481FF1FC881FF1F19
:1025E000C781FF1F6B660000E488FF1F86E055E08F
:1025F00000E0C7E700BFFE480078FE49085CFC49E0
:1026000008700846007810B9FB48007F0870F84849
:10261000808902990844F64988810846408900E08B
:1026200033E002990844F2494881F44800680068A0
:102630000299401AF14909680860AAE0EC4840880C
:10264000EB498989A0EB0108EC4800680068029911
:10265000414488420ED9E64902988881029848810F
:10266000E6480068006802994144401AE349096855
:1026700008608EE0DE488089E049096809880844DE
:10268000DB4988814FF0000810E0D9488089DB4998
:10269000096809880844D649888107E0D4488089B8
:1026A000D649096809880844D1498881D048808979
:1026B000CF49498888426BDB0EE0CD488089CC4900
:1026C0004988884207DBCA488089C9494988401A35
:1026D000C749888100E000E0EFE700BF0020C4495F
:1026E000488108460078C349085CC149087008461B
:1026F000007888BBC048007F087049E0BC488089EA
:1027000002990844401EBA494988884215D2B848FF
:10271000408902990844401EB549898888420CD2F4
:10272000B348808902990844B149888108464089A4
:1027300002990844AE49488129E00FE0AC488089FD
:10274000AB494988884208DBA9488089A84949885B
:10275000401AA749888101E01AE000E0EEE700BFD7
:10276000A3484088A2498989A0EB0108A0490298A2
:10277000888102984881084600789E49085C9C49F7
:1027800008700846007810B99B48007F087000E088
:10279000A5E600BF9A4800789A490968C8719A4826
:1027A00000689749097800EBC1009649086001204C
:1027B0000968887108F10100924909680860914828
:1027C0000068C0799049096801EBC0008B49086036
:1027D00008460068C0798A49087088480068C57151
:1027E0000298401E854909680860FF2083490968EE
:1027F0008871FD208149096888808249096888803C
:1028000000F0A6FC00F0B6FD7E48006801680846AE
:1028100000F00CFD06E000207549087000F0AAFDEC
:1028200001F00CFC00F0D3B900BF00BF00BF774837
:10283000007800F0400000287ED0724800686F49A0
:10284000086073480078173002904FF0000852E19A
:102850006A4800686B49086068480068C57967483D
:102860000068C0796B490978884266DA6548006873
:10287000C0796549096801EBC000604908600846F5
:102880000068807902287DDA0846006800680299AD
:10289000884278D96048C08B02990844401E5E493E
:1028A000898888421DD25C48408802990844401EAD
:1028B0005949C988884214D25748C08B02990844A4
:1028C0005549C883084640880299084452494880BF
:1028D0004A48006800680299401A48490968086037
:1028E0000AE14D48C08B02990844401E4A49898834
:1028F000884235D30EE04848C08B474989888842D2
:1029000007DB4548C08B44498988401A4249C8833F
:1029100000E000E0EFE700BF3F4840783549085C41
:102920003D4948700846407810B93348007F4870E8
:102930003948C08B029901E020E192E00844364911
:10294000C8830846408802990844334948802B4888
:10295000006800680299401A284909680860CBE0BD
:102960002D4880882C49C98BA0EB010823480068BA
:10297000006802994144884211D927490298C883C6
:10298000029801E01FE015E048801C4800680068DC
:1029900002994144401A194909680860ACE01E4890
:1029A000C08B16490968098808441B49C8834FF041
:1029B000000810E01848C08B1049096809880844CD
:1029C0001549C88307E01448C08B0C490968098879
:1029D00008441149C8831048C08B0F498988884230
:1029E0006DDB0D48C08B0C498988401A0A4915E0F7
:1029F000E488FF1F16C30000FAC200007C81FF1F9D
:102A00007581FF1F7881FF1F4881FF1FC681FF1F4F
:102A10005E82FF1F6A6600000089FF1FC8830EE008
:102A2000FA48C08BF9498988884207DBF748C08B90
:102A3000F6498988401AF549C88300E000E0EFE7CD
:102A400000BF0020F149488008464078F049085C02
:102A5000EE4948700846407888BBEE48007F4870D1
:102A600049E0EA48C08B02990844401EE74989883A
:102A7000884215D2E548408802990844401EE3493F
:102A8000C98888420CD2E148C08B02990844DF49CA
:102A9000C8830846408802990844DC49488029E0F8
:102AA0000FE0DA48C08BD9498988884208DBD748CB
:102AB000C08BD6498988401AD449C88301E01AE0FE
:102AC00000E0EEE700BFD1488088D049C98BA0EB79
:102AD0000108CE490298C883029848800846407889
:102AE000CB49085CC94948700846407810B9C948C4
:102AF000007F487000E0ABE600BFC7480078C749D8
:102B00000968C871C6480068C349097800EBC1006C
:102B1000C249086001200968887108F10100BF49B5
:102B200009680860BD480068C079BD49096801EBC3
:102B3000C000BC49086008460068C079B649087002
:102B4000B8480068C5710298401EB6490968086017
:102B5000FF20B44909688871FE20B249096888805D
:102B6000AE490968888000F0F3FA00F003FCAB4836
:102B700000680168084600F059FB1EE0A348007891
:102B8000A949096851F8200080B1A0480078FF28C1
:102B90000CDA9E480178084601F042F99B4801781A
:102BA000084601F0DFF9FF20984908700020974996
:102BB000487000F0DFFB01F041FA08E000F0DAFBBA
:102BC00001F03CFA03E00C2000F03CFD00BF00BF28
:102BD00000209649087001F0A1FD08B900F03CFC06
:102BE0009348007893490978884200F077828B48AF
:102BF00000688079022806DA88480068006803289F
:102C000001D900F063FB854800680068022801D202
:102C1000FDF750BD884800788849097880EA0105A9
:102C200005F0070000287DD005F00100F0B38248D0
:102C3000007800F00100002874D11C2280498148EE
:102C400000F0B4FA04228049804800F0AFFA05F0A1
:102C50003800794909784840774908700846007873
:102C600040F0010008707A48007840F01000784980
:102C700008707448007A00F00F007649085C7649C5
:102C80000978491C084402902DE0664800686349B1
:102C9000086064480068C57962480068C079654981
:102CA000097888421EDA5F48006800E056E0C07983
:102CB0005B49096801EBC0005A4908600846006892
:102CC000807902280FDA0846006800680299884275
:102CD00009D95448006800680299401A51490968A6
:102CE000086001E000E0D0E700BF4B4800784B49A6
:102CF0000968C8714A4800684749097800EBC10073
:102D000046490860012009688871444909680860DB
:102D100042480068C0794249096801EBC000414956
:102D2000086000E05DE008460068C0793A49087034
:102D30003C480068C5710298401E3A49096808601D
:102D4000FF20384909688871FC2034490968888067
:102D500034490968888000F0FBF94CE105F0020075
:102D6000F0B33548007800F00200D0BB0E223B499A
:102D70003B4800F01BFA04223349344800F016FAAD
:102D800005F040002C49097848402B490870084656
:102D9000007840F0020008702D48007840F02000D4
:102DA0002B4908702C480078173002905BE01D48D2
:102DB00000681A4908601B480068C579194800680E
:102DC000C0791C49097888424CDA16480068C079F5
:102DD0001349096801EBC00012490860084601E088
:102DE0007FE0BFE00068807902283CDA084600688E
:102DF00000680299884236D90A480068006802993A
:102E0000401A0849096808602EE000000089FF1F89
:102E100016C30000FAC200007581FF1F7881FF1FF2
:102E20004881FF1F7C81FF1F4481FF1F8181FF1F9D
:102E30007681FF1F6A660000C881FF1FC781FF1FE0
:102E40008888FF1F2C88FF1FC281FF1FBE81FF1FC4
:102E5000C681FF1F72C200005E82FF1FF288FF1F43
:102E6000E488FF1F00E0A2E700BFAD480078AD494D
:102E70000968C871AC480068A949097800EBC1002D
:102E8000A8490860012009688871A6490968086096
:102E9000A4480068C079A449096801EBC000A349AF
:102EA000086008460068C0799D4908709F4800681E
:102EB000C5710298401E9D49096808609C490298A6
:102EC000888102984881FF20984909688871FD200F
:102ED00094490968888095490968888000F038F924
:102EE00089E005F00400E8B39248007800F004009F
:102EF000C0BB05F080008F49097848408D490870B3
:102F00000846007840F0040008708B48007840F0D4
:102F100040008949087089480078173002902DE0F8
:102F2000824800687F49086080480068C5797F480A
:102F30000068C0798249097888421EDA7B480068B7
:102F4000C0797949096801EBC000784908600846F2
:102F500000688079022811DA084600680068029942
:102F6000884200E047E009D970480068006802998B
:102F7000401A6E490968086001E000E0D0E700BF30
:102F80006748007867490968C871674800686449FC
:102F9000097800EBC1006349086001200968887165
:102FA0006049096808605F480068C0795E4909683F
:102FB00001EBC0005D49086008460068C0795849C7
:102FC00008705A480068C5710298401E5749096840
:102FD00008605C490298C88302984880FF205349E2
:102FE00009688871FE204F49096888804F4909683F
:102FF000888000F0ADF854480088A8B34F480078A6
:10300000514909880844401C029000204E4908801C
:103010002CE0464800684349086044480068C57988
:1030200042480068C0794649097888421DDA3F481D
:103030000068C0793C49096801EBC0003B49086061
:10304000084600688079022810DA0846006800689F
:10305000029988420AD93548006800680299401AE6
:1030600032490968086002E038E000E0D1E700BFBB
:103070002B4800782B490968C8712B4800682849FB
:10308000097800EBC10027490860012009688871B0
:1030900024490968086023480068C0792249096802
:1030A00001EBC0002149086008460068C0791C494E
:1030B00008701E480068C5710298401E1B490968C7
:1030C0000860FF20194909688871FB2015490968C3
:1030D000888016490968888000F03AF800F082F983
:1030E0001BE01A4902980968884216D917490298C4
:1030F0000968401A0B490968086007F4407000B17C
:103100000BE0FC2F04D0FD2F03D0FE2F03D101E0F4
:1031100002E001E000E000BF00BF00BFFDF7CABA57
:103120007581FF1F7881FF1F4881FF1F7C81FF1F72
:10313000E488FF1FC881FF1FC681FF1F5E82FF1F3B
:103140006A6600000089FF1FCA81FF1F5882FF1FA7
:10315000114800781149097888421BD0104800684E
:103160000D49097800EBC1000E4908600846006867
:10317000C0790A490978884203D100200A490860C9
:1031800008E008480068C0790549096801EBC000FB
:1031900005490860704700007681FF1F6A660000DD
:1031A0004881FF1F7881FF1F7C81FF1F32B100BF64
:1031B000531E9AB28B5C8354002AF9D1704764E89D
:1031C000B6771B49832307004FF6C9162E1D07004B
:1031D000060002030001100101E2485A7AD8D97CA6
:1031E000223057FA42DB598B25677547304AF6D9AA
:1031F0001A28DDB5B7E148AC7E3B918AA6D71C45BD
:1032000033E50BE58BE88D786175A7E34B0180A072
:10321000FBF982000002000200000200020101012D
:1032200000010000000000010102000138B5044661
:1032300004EB4400C0EBC41545F0004000900422AC
:1032400069469C2000F016FA0B4803684268EB18A8
:1032500042F1000103604160017901F01F01017139
:103260000649086820440860C878EF2802D900F0B1
:103270000F00C8704C6038BDA881FF1F5482FF1F2B
:1032800010B50F480078B8B90E480078012813D15E
:103290000D48C178292000F0F3F80B4801792A2065
:1032A00000F0EEF81C2001F045FA044644F001015C
:1032B0001C2000F0E5F800BF00200249087010BD96
:1032C0006C82FF1F6B82FF1F938AFF1F10B503489C
:1032D000406808B101F0AEFA10BD0000CC81FF1FBC
:1032E0002DE9F04104461F480078012802D101F081
:1032F000C1FA02E0002001F0BDFA012C2DD11A48DC
:103300000078002828D11948C07800F01F0040F04C
:10331000E0051648007900F07E0040F0810629465D
:10332000292000F0ADF831462A2000F0A9F81C2031
:1033300001F000FA074607F0FE011C2000F0A0F89B
:103340000A48807A40F08001782000F099F8012046
:1033500007490870BDE8F08100BF022004490870E9
:1033600000BFF7E76A82FF1F6C82FF1F938AFF1F6F
:103370006B82FF1F15490968C87915490978134AF6
:103380001268D17113490978114A117011490870F6
:1033900011490978884203D100210C4A116006E0E6
:1033A0000E490968094A116011460968C8790A4935
:1033B0000978884203D10021084A116005E00849D4
:1033C000096801EBC001054A116070477881FF1F51
:1033D0007581FF1F7681FF1F6A6600007C81FF1FD9
:1033E0004881FF1F10B517480078174909788842AF
:1033F00027D0164800680068282822D9134800689A
:10340000807901281DD100240BE004EBC400104991
:10341000096801EB0010C078012800D105E0601CAC
:1034200084B20C4800788442EFDB00BF0948007882
:10343000844203D10120FFF753FF02E00020FFF791
:103440004FFF10BD7681FF1F6A6600007881FF1F65
:103450003081FF1F6B66000010B50748C47A44F046
:103460008001792000F00CF80448007820F0030077
:103470000249087010BD0000938AFF1FD481FF1F0E
:103480000A462649496821F00201891C234B5960EC
:103490002349098821F4006101F50061204B19805E
:1034A00000BF1E494969C1F340110029F9D000F05D
:1034B0007F011A4B196000BF18494969C1F34011D7
:1034C0000029F9D0C109154B196000BF134949699A
:1034D000C1F340110029F9D010490A6000BF0F491B
:1034E0004969C1F340110029F9D000BF0B4949696E
:1034F000C1F3400181F001010029F7D00949098891
:1035000021F4006101F50061064B19800349496906
:1035100021F00101014B59617047000000C00140DA
:103520002A3805402838054010B50548C07940F0D4
:1035300014040349CC7121463D20FFF7A1FF10BDC3
:10354000938AFF1F10B50548807A20F020040349B4
:103550008C7221467820FFF793FF10BD938AFF1FDE
:1035600010B50548807A40F0200403498C7221464A
:103570007820FFF785FF10BD938AFF1F10B5144810
:10358000C07A20F0400421467920FFF779FF1048E7
:10359000C47202200F4908700F48007866280DD1C8
:1035A0000E4800790A49497A41F0400108430B4925
:1035B00008710522732000F05DF807E00448407AA6
:1035C00040F0400421467720FFF75AFF10BD00006D
:1035D000938AFF1FD481FF1FCB82FF1FA881FF1F8B
:1035E00010B51448C07A40F0400421467920FFF716
:1035F00047FF1048C47201200F4908700F48007837
:1036000066280DD10E4800790A49497A41F04001F7
:1036100008430B4908710522732000F02BF807E0DE
:103620000448407A40F0400421467720FFF728FF05
:1036300010BD0000938AFF1FD481FF1FCB82FF1FA4
:10364000A881FF1F72B6014609B100BFFEE762B64E
:10365000704750F8041B61B150F8042BD30744BFE6
:10366000A9F101039A180023091F42F8043BFAD17B
:10367000EFE770472DE9F04104460E4617464F48E4
:10368000406820F00200801C4C49486008464068B1
:1036900020F04000403048600846406900F00100DA
:1036A00020B10846406920F0010048614448008884
:1036B00020F4006000F500604149088004F07F00BC
:1036C0003E49086000BF3D484069C0F340100028F3
:1036D000F9D0E0093949086000BF38484069C0F3B3
:1036E00040100028F9D0FE2C19D101F03FF9054611
:1036F000E8B23249086000BF30484069C0F340106A
:103700000028F9D0C5F3002040F080002B49086064
:1037100000BF2A484069C0F340100028F9D000BF1C
:1037200026484069C0F3400080F001000028F7D02F
:103730002248406820F04000204948602148066047
:103740002148D0F8880067F31F401F49C1F888005E
:103750000846C06940F00200C8611848406820F07F
:10376000400040301549486000BF1748806800F0AD
:1037700002000228F9D11448806940F00201124881
:10378000806961F303001049886100BF0B484069FC
:10379000C0F3400080F001000028F7D00B480088FB
:1037A00020F4006000F50060084908800348406983
:1037B00020F0010001494861BDE8F08100C00140EE
:1037C0002A38054080300540003005402838054043
:1037D00010B5044604EB44000749096801EB4003B7
:1037E00005221946054801F0C7F8052203491620AD
:1037F000FFF740FF002010BD4C83FF1F638AFF1FAF
:1038000070B505460648C47A204665F305000446AF
:1038100021467920FFF734FE0148C47270BD0000D4
:10382000938AFF1F10B504460448007B00F0C000D7
:1038300040EA04010C2001F0ABF810BD451A01006C
:10384000017F427E1144024A515C017770470000BB
:10385000ACC2000010B50446032221467020FFF7D9
:1038600009FF10BD70B505463DB11F240B48807A95
:1038700040F008000949887206E011240748807A60
:1038800020F008000549887221465E20FFF7F8FD08
:103890000248817A7820FFF7F3FD70BD938AFF1FFD
:1038A00010B50548807A40F0040403498C72214623
:1038B0007820FFF7E5FD10BD938AFF1F11490968C5
:1038C000C88B10490968097801F0400179B10D49A8
:1038D0000968097840390C4A515C41B109490968C5
:1038E000B1F88A100144074A1268A2F88A10054903
:1038F0000968B1F888100144024A1268A2F88810D9
:10390000704700008481FF1F4FC4000010B40246BE
:1039100000233048006850F82200002830D12E489B
:10392000006800EBC2012D48006890F85300E0B138
:103930004868002824D04868C07AC01E0F2812D2D8
:10394000DFE800F008090A0B1111110C0D110E111E
:1039500011110F0000BF00BF00BF00BF00BF00BFBC
:1039600000BF012300E000BF0AE0486808B101235E
:1039700006E01B48006800EBC201486800B1012363
:10398000002B21D0134C4868246844F82200D1F859
:1039900004C04868006848600DE0486850B1486855
:1039A0008088F02805D1D1F804C0486800684860D4
:1039B00001E001E000E0F0E700BF0020CCF80000EB
:1039C000486808B9002008600248006850F82200E2
:1039D00010BC70474081FF1F3881FF1F8481FF1F8B
:1039E0003481FF1F2DE9F04780468946F64800687C
:1039F00050F82840F54804604460A088E62806D0C6
:103A0000EF2802D0F0280CD109E003260BE0607A01
:103A1000A17A884201D1022600E0012603E00126B6
:103A200001E0002600BF00BFE948006890F87D0073
:103A3000012804D1E648006890F8815003E0E4488A
:103A4000006890F8825005F0F000281A012801D192
:103A5000681EC5B249EA060020F0E000DD49887022
:103A60000020C870012E0FD0022E0CD0032E3AD1A8
:103A7000A07A2072A07AC870A27A04F10B01D6480D
:103A8000FFF794FB30E000BF2AE0207A2844617AF7
:103A9000884208DA207A28442072CE48C078284428
:103AA000CC49C8701DE095B1607A217A401A281A75
:103AB000C5B2607A217A401AC649C9780844C54916
:103AC000C870607A217A401A0844207200E008E049
:103AD000206820B1BD4804602468446000E000E034
:103AE000D3E700BF00E000BF00BFBA48C07810288D
:103AF00027DDB848C07800F00F00012821D1B34875
:103B00004068007A092807DBB0484068007A093825
:103B1000AE49496808720FE0AC480068007AAB49CA
:103B20004968097AC1F10901401AA849096808726F
:103B30000020A64949680872A648C0780938A549F6
:103B4000C8700025A148046811E0207A617A884293
:103B500004DA607A217A401A2844C5B2072D01DDC3
:103B6000002505E0206808B1246800E000E0ECE7EB
:103B700000BF9DB3072D02DCC5F10800C5B2954812
:103B8000C078401B102808DD9248C078401B00F028
:103B90000F00012801D1681CC5B28C484068007A2A
:103BA000A84207DB89484068007A401B874949687A
:103BB00008720EE085480068007A84494968097AED
:103BC000691A401A81490968087200207F494968CA
:103BD00008728048C078401B7E49C8707A480068E7
:103BE00050F828407B48C078202801DD202501E0DE
:103BF0007848C57877484570002735E073480460F9
:103C0000207AA84217DAA37A94F809C0A3EB0C0330
:103C100004F10B0C03EB0C01227A6F4BD819FFF760
:103C2000C5FA207A281AC5B2207A3844C7B2207A59
:103C30006849087013E0A27A637AD21A04F10B0380
:103C4000D118654AD0192A46FFF7B0FAA07A617AEE
:103C5000401AC7B278195F490870002505E020684E
:103C600008B1246800E000E0C8E700BF57480460DE
:103C7000206850B157480078A17A884205D153494D
:103C800020680860002053490870504800680068A8
:103C900028B14E48006800684C49486003E04B4832
:103CA00000684A4948604D48007800F00100B0B112
:103CB00047480068C078012809D14548006890F855
:103CC000740040F080004249096881F874000522C0
:103CD0003F48006800F170017E20FFF7CBFC3F48B1
:103CE000007800F00301084600F08AF838480068C0
:103CF00090F8740020F080003549096881F874005C
:103D00003648007800F0010090B33148006890F820
:103D10007D00022842D12F48C07807283EDC94F865
:103D2000210028B12A480068006F6169884220D0CC
:103D30000020207229F0F00040F001002549887031
:103D40000020C870881C00F04FF800F077FE044691
:103D50005920A0801C48006850F82800E06084F8D2
:103D600008806672204600F083FE0020BDE8F087E0
:103D700014E01A48007800F00201084600F040F80C
:103D800094F821001349C8700846C0784870084666
:103D9000C27804F12201001DFFF708FA00F07AFE54
:103DA0000F4800F021F80B48C07838B10948417835
:103DB000001D00F09BFE01200A49087002480068BF
:103DC00050F82800D2E700004081FF1F5881FF1FF4
:103DD0008481FF1F3C89FF1F4089FF1F8081FF1FD7
:103DE0003E89FF1F5481FF1F10B504460020034980
:103DF00008602146FE2000F08DFE10BD6482FF1F8A
:103E000038B5044605A00068009004F007001DF8CE
:103E1000002011469B20FFF733FB38BD0002030151
:103E20002DE9F041044604EBC4004449096801EB64
:103E30000015434901EBC4000822424900F0E6FEA8
:103E400090224149284600F0E1FE72B60120633518
:103E500005F8630CA876E8761B2028776877A877A2
:103E6000E877633D3948006850F8240008B33748C4
:103E7000006850F824600BE04EB135480088401CC3
:103E800033490880306808B1366801E001E000E09D
:103E9000F2E700BF6EB12F48006830602B48006821
:103EA00050F824002B49086000202849096841F88F
:103EB000240062B64FF000083AE0B8F1000F06D0D7
:103EC000B8F1010F08D0B8F1020F0FD109E0224874
:103ED000006800EBC4070AE02048006800EBC40754
:103EE00005E01F48006800EBC40700E000BF00BF0A
:103EF00072B63868B8B17E6809E015480088401C81
:103F000013490880306808B1366800E000E0F4E743
:103F100000BF10480068396808600E49786808607A
:103F200000207860386062B608F1010000F0FF08F8
:103F3000B8F1030FC1DBBDE8F08100003081FF1F45
:103F4000A482FF1F46C20000EBC400004081FF1F97
:103F50000883FF1F0483FF1F3481FF1F3881FF1F69
:103F60003C81FF1F70B504460A48006850F82400E1
:103F700070B10848006850F82450B020A880002193
:103F8000284600F0BBFB00200249096841F82400E4
:103F900070BD00004481FF1F10B50548C07920F0B6
:103FA00014040349CC7121463D20FFF769FA10BD86
:103FB000938AFF1F1B490968C8791B490978194A68
:103FC0001268D17119490978174A11701749087098
:103FD00017490978884203D10021164A116012E07E
:103FE0001549096801EBC001124A116011460968C0
:103FF00009680C4A1268126811440E4A126811606E
:104000000C490968C8790A490978884203D1002116
:10401000044A116005E00849096801EBC001014A42
:10402000116070477C81FF1F7581FF1F7681FF1F24
:104030006A6600007881FF1F4881FF1F10B509489C
:10404000007809490978884204D14FF4C860FFF725
:10405000EDF805E00548006801680846FFF7E6F856
:1040600010BD00007681FF1F6A6600007881FF1F87
:1040700010B5044602200449086006222146FE20AD
:10408000FFF7F8FA10BD00006482FF1F10B5054865
:10409000807A20F0040403498C7221467820FFF7CF
:1040A000EFF910BD938AFF1F10B50446082004499C
:1040B00008601F222146FE20FFF7DCFA10BD000039
:1040C0006482FF1F0E484368026812F17D0143F1CC
:1040D000000242600160007900F01F000849087189
:1040E00008480068401C074908600846C078EF2867
:1040F00004DD0846C07800F00F00C870704700006B
:10410000A881FF1F5482FF1F02460A48006850F82A
:10411000221008E031B1087A18B10020087209684D
:1041200001E001E000E0F5E700BF0248006850F858
:10413000220070474081FF1F0B466649496821F005
:104140000201891CDFF88CC1CCF804106146496873
:1041500021F040014031CCF804106146496901F07A
:10416000010129B16146496921F00101CCF814101F
:104170005949098821F4006101F50061DFF858C14F
:10418000ACF8001000F07F0141F08001DFF844C17D
:10419000CCF8001000BF4F494969C1F34011002914
:1041A000F9D0C109DFF82CC1CCF8001000BF494993
:1041B0004969C1F340110029F9D00021DFF814C189
:1041C000CCF8001000BF43494969C1F340110029F0
:1041D000F9D0FF280BD10021DFF8F8C0CCF800108F
:1041E00000BF3C494969C1F340110029F9D000BF23
:1041F00038494969C1F3400181F001010029F7D034
:104200003449496821F04001DFF8C8C0CCF80410F7
:1042100000BF30494969C1F3400181F00101002923
:10422000F7D02C49496821F00201DFF8A8C0CCF88A
:1042300004102A49DFF8A8C0CCF880102949096881
:1042400062F31F41CCF8881061464B64896C62F3BD
:104250001F41CCF848106146C96941F00301CCF810
:104260001C101C49496821F040014031DFF864C04E
:10427000CCF8041000BF1A49896801F00301032932
:10428000F9D11749896941F0030C154989696CF323
:104290000301DFF84CC0CCF8181000BF0D49496984
:1042A000C1F3400181F001010029F7D00E490988CE
:1042B00021F4006101F50061DFF82CC0ACF80010BA
:1042C0000449496921F00101DFF808C0CCF8141055
:1042D0007047000000C001402A3805400480FF1FDD
:1042E00000300540883005402838054018B4844621
:1042F0008A4201DD009100E00092180006D00128FA
:1043000009D0022808D0032807D100E000BF009898
:104310000844009004E000BF02E00020009000BFCD
:1043200000BFBCF1010F03D10098C000009002E073
:1043300000988000009003EB4300094C04EB400020
:1043400030F81C00009C20440090064C009860430C
:1043500000909DF80300801CC0B218BC704700009C
:10436000C0C60000490C0200F0B583B000F05AFC52
:104370001D48007800098DF806001B48407800F0C1
:104380000F008DF807001848407800098DF80800E4
:10439000154880788DF809009DF80600134931F81A
:1043A00010709DF80700124931F810509DF8080070
:1043B000104931F810607819304440429DF80910D6
:1043C000C1F1FF01A0EBC11004B207488078FE28BC
:1043D00002D104F5E07004B20748007800EBE41461
:1043E00060B203B0F0BD00007F82FF1FFA1A010027
:1043F0001A1B01003A1B01006882FF1F70B50546B9
:1044000035480068408B34490968898D884262DDEF
:104410003148006890F8540000F0040088B12E483C
:10442000006890F8540020F004002B49096881F8D6
:1044300054000420284909680870284600F000FC50
:1044400049E02548006890F8540000F0200000285A
:1044500041D02148006890F8540020F020001E4907
:10446000096881F8540004201B49096808701A483B
:10447000006890F87600C0B11748006890F87600A0
:104480001549096881F87D001348006890F87700A5
:104490001149096881F87E0000200F49096881F8F8
:1044A00076000D49096881F8770000F0C7FA0446E4
:1044B0007420A0800020A072E5720748006890F880
:1044C0007D0020730448006890F87D00607304212B
:1044D000204600F013F970BD8481FF1F00200BE01F
:1044E00000EBC002144B1B6803EB0212D278012AC6
:1044F00000D105E0421CD0B2104A12789042EFDBA6
:1045000000BF0E4A1278904208D10D4A126892F804
:1045100083200C4B53F82220510006E0084A126811
:1045200092F88320074B53F82210054A1268D28B69
:104530004A43054B1A6070473081FF1F6B660000CD
:104540008481FF1F88C200009881FF1F81B00B4843
:104550000068D0F884000A490968084407490968D6
:10456000C1F8840005480068D0F8840080090090F4
:10457000BDF80200801C80B201B070478481FF1F2B
:104580009881FF1F70B505460E4600F057FA0446A5
:10459000E572A6726320A0800421204600F0AEF8E8
:1045A00070BD0146002070472DE9F041054605EB3E
:1045B000C5004749096801EB0017464800EBC503F1
:1045C00008224549184600F0D7F990224349384659
:1045D00000F0D2F90120387087F87D0087F87E005E
:1045E0001B2087F87F0087F8800087F8810087F814
:1045F00082003B480078401C3949087039480068FF
:1046000050F82500002821D03648006850F8254091
:104610000BE04CB134480088401C334908802068C6
:1046200008B1246801E001E000E0F2E700BF6CB1EE
:104630002E48006820602B48006850F825002B4960
:10464000086000202749096841F825004FF000085C
:1046500038E0B8F1000F06D0B8F1010F08D0B8F17A
:10466000020F0FD109E02248006800EBC5060AE0FE
:104670002048006800EBC50605E01F48006800EB15
:10468000C50600E000BF00BF3068B8B1746809E03B
:1046900015480088401C14490880206808B1246827
:1046A00000E000E0F4E700BF1048006831680860EF
:1046B0000E497068086000207060306008F10100E9
:1046C00000F0FF08B8F1030FC3DBBDE8F081000084
:1046D0003081FF1FA482FF1F46C20000EBC4000010
:1046E0005581FF1F4081FF1F0883FF1F0483FF1FA9
:1046F0003481FF1F3881FF1F3C81FF1F0246064B9C
:1047000003EBC100036813B94260026002E0036872
:104710001A600260704700003893FF1F0448007859
:1047200000F0030008B1002070470120FCE7000002
:10473000D481FF1F014600223B48406820F0020060
:10474000801C394B58603948008820F4006000F51F
:104750000060364B188000BF33484069C0F34010FA
:104760000028F9D041F080002F4B186000BF2E4880
:104770004069C0F340100028F9D0C8092A4B1860DE
:1047800000BF29484069C0F340100028F9D000203C
:10479000254B186000BF24484069C0F34010002832
:1047A000F9D0FF2909D100201F4B186000BF1E4817
:1047B0004069C0F340100028F9D000BF1A48406992
:1047C000C0F3400080F001000028F7D01648406890
:1047D00020F00200144B586000BF13484069C0F33A
:1047E00040100028F9D000200F4B186000BF0E4881
:1047F0004069C0F3C0100028F9D00B480068C2B26D
:1048000000BF09484069C0F3400080F00100002863
:10481000F7D00748008820F4006000F50060044BE2
:10482000188010467047000000C001402A3805403B
:104830002838054070B50D48446840680B49096840
:10484000884204D1002009494860086002E0074915
:104850002068486020795038C5B2054850F82510C6
:1048600020468847204600F0FBF970BDCC81FF1F31
:1048700098C600002DE9F0410546042000F006FA34
:104880000446C4F34014012D65D135480078A04298
:1048900003D13448007800285DD13348C07840F017
:1048A000FE063148007940F001072F48407900F0BA
:1048B000FC0040F0030841462B2000F069F8314627
:1048C000292000F065F839462A2000F061F80A2016
:1048D00000F052FA2448807840F010002249887095
:1048E00008468178282000F053F81F48807840F06F
:1048F00040001D49887008468178282000F048F85B
:104900000A2000F039FA012C0BD11748807800F00A
:10491000BF001549887008468178282000F038F8D3
:104920000AE01148807800F0EF000F4988700846CF
:104930008178282000F02CF80B48C178292000F05D
:1049400027F8094801792A2000F022F80648417921
:104950002B2000F01DF8024804702046BDE8F081CD
:104960006082FF1F6D82FF1F938AFF1F014800684E
:10497000704700006482FF1F32B100BF531E9AB21D
:104980008B5C8354002AF9D17047014600207047A0
:104990000A462749496821F00201891C244B5960C5
:1049A00072B62449098821F4006101F50061214BA8
:1049B000198000BF1E494969C1F340110029F9D08F
:1049C00000F07F011A4B196000BF19494969C1F312
:1049D00040110029F9D0C109154B196000BF1449D5
:1049E0004969C1F340110029F9D011490A6000BF9B
:1049F0000F494969C1F340110029F9D000BF0C49A2
:104A00004969C1F3400181F001010029F7D00A4949
:104A1000098821F4006101F50061074B198062B635
:104A20000349496921F00101014B596170470000B8
:104A300000C001402A3805402838054000B50A4822
:104A4000006818B91020FEF7FDFD0BE0074800884C
:104A5000401E06490880044802680349106808603F
:104A600000201060104600BD0483FF1F0883FF1F55
:104A700072B60749096819B905494860086004E039
:104A80000349096808600249086062B6704700007F
:104A9000CC81FF1F10B53E20FFF74CFE00F0400018
:104AA0000F49087008460078C0B10E480068808839
:104AB00000F4407020B10C480088401E0A4908806C
:104AC000084800680068401E064909680860FFF74A
:104AD000F9FA034801783E20FEF7D2FC10BD000031
:104AE0005C82FF1F7C81FF1F8881FF1F70B5054618
:104AF0000C4602200649086022462946FE20FEF7A1
:104B0000B9FD0348006820440149086070BD0000F9
:104B10006482FF1F70B504460D463948406820F096
:104B20000200801C364948603648008820F4006046
:104B300000F500603349088000BF31484069C0F388
:104B400040100028F9D004F07F002D49086000BF14
:104B50002B484069C0F340100028F9D0E0092849EB
:104B6000086000BF26484069C0F340100028F9D013
:104B7000FE2C18D1FFF7FAFE0646F0B22049086075
:104B800000BF1F484069C0F340100028F9D0C6F3A9
:104B900000201B49086000BF19484069C0F340105D
:104BA0000028F9D000BF28781549086000BF1448D4
:104BB0004069C0F340100028F9D0687810490860B7
:104BC00000BF0F484069C0F340100028F9D000BF73
:104BD0000B484069C0F3400080F001000028F7D086
:104BE0000948008820F4006000F50060064908804C
:104BF0000348406920F001000149486170BD000090
:104C000000C001402A3805402838054032B100BFB5
:104C1000531E9AB28B5C8354002AF9D17047014627
:104C20000020704700BF05484069C0F3400080F095
:104C300001000028F7D000207047000000C00140AC
:104C400070B50546FFF7FAFE0446E920A0802572FC
:104C500000212046FFF752FD70BD0146002070473D
:104C600018B108490968884200D1704705490968A8
:104C700001600449086004490988491C024A1180FE
:104C800000BFF2E70483FF1F0883FF1F01460022D5
:104C90003648406820F00200801C344B586072B6E1
:104CA0003348008820F4006000F50060304B188025
:104CB00000BF2E484069C0F340100028F9D041F0F1
:104CC00080002A4B186000BF28484069C0F340109C
:104CD0000028F9D0C809254B186000BF2348406957
:104CE000C0F340100028F9D00020204B186000BF0E
:104CF0001E484069C0F340100028F9D000BF1B488F
:104D00004069C0F3400080F001000028F7D0174848
:104D1000406820F00200154B586000BF13484069FE
:104D2000C0F340100028F9D00020104B186000BFDD
:104D30000E484069C0F3C0100028F9D00B48006845
:104D4000C2B200BF09484069C0F3400080F00100D2
:104D50000028F7D00748008820F4006000F50060C4
:104D6000044B188062B610467047000000C0014036
:104D70002A3805402838054010B50446204600F082
:104D800012F910BD10B58AB00721002201AC200035
:104D900000F044F90321002200AC200000F03EF9AD
:104DA0001421002205AC200000F038F90621002271
:104DB00003AC200000F032F900208DF8040001203F
:104DC0008DF8050000208DF8060001208DF8070001
:104DD00002208DF8080002208DF8090001208DF8CE
:104DE0000A0001A800F0CCFB00208DF80100022091
:104DF0008DF8020001208DF8000000A800F044F9B1
:104E0000012000F077F9012009903220089002205B
:104E100005900220069002200790002000F0E5F99E
:104E200005A800F010FA00F0EBFC052000F003FDEF
:104E300000F0F1FC0B208DF80C0001208DF80D0026
:104E400001208DF80E0003A800F040FD012000F0C5
:104E5000AEFA022000F07AFC0128FAD1052000F019
:104E6000FCFA0AB010BD80B50023202240210220A8
:104E700000F0E4FD002321228021022000F0DEFD6D
:104E800001BD10B586B0FFF77DFF564A5FF4E131F2
:104E9000554800F008FF00F091FF0400E4B2002C38
:104EA00005D0E4B22100514800F0A8FFFEE75048C9
:104EB00000F0A4FF4F4800F0A1FF4D4800F09EFF16
:104EC00000F0AEFFC0B201004B4800F097FF002099
:104ED0008DF80C00494800688DF80D0047480068BF
:104EE000000A8DF80E0045480068000C8DF80F0090
:104EF00042480068000E8DF81000414800688DF8A7
:104F000011003F480068000A8DF8120003A800F065
:104F10008DFF9DF8120002909DF8110001909DF800
:104F2000100000909DF80F309DF80E209DF80D1098
:104F3000344800F063FFE4B2002C04D0E4B2210056
:104F4000314800F05BFF00F0BDFF0400E4B2002C2C
:104F500005D0E4B221002D4800F050FFFEE701F03B
:104F60003BF80128FBD100F0DEFF00F001F8F6E786
:104F700080B501F099F801BD81B0002100910021B8
:104F80002349096844F62062B1FBF2F10200501E89
:104F9000002A06D00091009A531E0093002AFAD1ED
:104FA000F4E701B0704781B0012100210091184958
:104FB0000968184A91420FD315490968164AB1FB8E
:104FC000F2F10200501E002A0AD00091009A531EEE
:104FD0000093002AFAD1F4E70100481E0029FBD112
:104FE00001B07047674E000000100240F842010017
:104FF00058420100FC4301003448010058040140BC
:10500000540401405C440100804201001C44010042
:105010005483FF1F81969800002D310162F30F2207
:1050200062F31F42401810F0030308D0C91A1FD3BF
:10503000DB0748BF00F8012D28BF20F8022D130020
:1050400030B414461546103928BF20E93C00FAD880
:10505000490728BF20E90C0048BF40F8042D89000B
:1050600028BF20F8022D48BF00F8012D30BC704742
:10507000C91818BF00F8012DCB0728BF00F8012D73
:105080007047014600207047002832D0DFF89016A4
:10509000098841F4254151F00101DFF8842611808F
:1050A0000178DFF8D424127812F07F0252EAC1119D
:1050B000DFF8C42411704178DFF8BC24127861F362
:1050C0008612DFF8B4140A708078DFF8AC1409781F
:1050D00060F30511DFF8A0040170DFF844060088D2
:1050E00080B24FF6FE71084050F42540DFF83016CC
:1050F0000880704738B50500002000900024EDB20C
:10510000002D08D0EDB2012D05D040F28111DFF85D
:105110006C0400F031FEEDB2002D08D0EDB2012D8F
:1051200005D040F28311DFF8540400F025FEDFF8CB
:10513000F005008840F4254050F00100DFF8E0154C
:105140000880EDB2002D2AD1DFF8D805007810F0E4
:105150000700032801D1012438E0DFF8CC050068FE
:10516000C0F3C010002811D1DFF8C005007810F09E
:105170000100002801D1012428E0DFF8B4050078FF
:1051800050F00100DFF8A81508701FE0DFF8A00557
:10519000007850F00100DFF89815087016E0DFF88D
:1051A0009005007810F0FE00DFF8841508700924DF
:1051B00002E00098401C00900098B0F5805F05D296
:1051C000012000F0C3FA0128F3D10024DFF85005D4
:1051D000008880B24FF6FE71084050F42540DFF899
:1051E000401508802000C0B232BD10B50400E4B202
:1051F000002C08D0E4B2012C05D040F2E521DFF804
:105200007C0300F0B9FDDFF81805008840F4254064
:1052100050F00100DFF808150880E4B2DFF8080557
:10522000006864F3C710DFF800150860DFF8F004C9
:10523000008880B24FF6FE71084050F42540DFF838
:10524000E014088010BD38B5040000200025002CB3
:1052500000F0AC802068801E0F2805D34FF4417108
:10526000DFF8180300F088FD6068002802D060684D
:10527000112805D340F20531DFF8000300F07CFD72
:10528000A068801E0F2805D340F20631DFF8EC023B
:1052900000F072FDE0681438B0F5E67F05D940F201
:1052A0000731DFF8D80200F067FD2069002802D03E
:1052B0002069192805D34FF44271DFF8C00200F0CD
:1052C0005BFDDFF864040068C0F3C010002802D161
:1052D000DFF8600402E0DFF8600400682169B0FBD9
:1052E000F1F0E16801FB00F5DFF85014401ADFF837
:1052F0005014884205D340F20F31DFF8800200F0ED
:105300003BFDDFF84004281ADFF83C14884205D33F
:105310004FF44471DFF8640200F02EFDDFF8000462
:10532000008840F4254050F00100DFF8F4130880B5
:105330002068401EDFF8F013096860F31F71DFF882
:10534000E80301606068401EDFF8DC13096860F361
:105350001B61DFF8D4030160A068401EDFF8C813AA
:10536000096860F31751DFF8C0030160E068401E70
:10537000DFF8B413096860F31021DFF8AC030160B3
:105380002069401EDFF8A013096860F30401DFF80C
:1053900098030160DFF88803008880B24FF6FE7141
:1053A000084050F42540DFF87813088031BD38B547
:1053B0000500002000900024EDB2002D08D0EDB2D1
:1053C000012D05D040F23531DFF8B00100F0D4FCFA
:1053D000DFF8F803008840F4254050F00100DFF8C2
:1053E000EC130880EDB2002D11D1DFF838030078FE
:1053F00010F00700052801D101241FE0DFF82C037D
:10540000007850F00100DFF82413087016E0DFF890
:105410001C03007810F0FE00DFF810130870092458
:1054200002E00098401C00900098B0F5805F05D223
:10543000022000F08BF90128F3D10024DFF88C035F
:10544000008880B24FF6FE71084050F42540DFF826
:105450007C1308802000C0B232BD10B586B00400B5
:1054600000200090DFF8680300680490DFF8640310
:1054700000680390DFF8600300680290DFF85C03C7
:1054800000680190E4B2002C0AD0E4B2002C02D0F3
:10549000E4B2062C04DB4FF47771384800F06CFC62
:1054A000DFF83C03DFF8441308609E48007810F0F2
:1054B0000700052802D0E4B2052C1AD1DFF8240336
:1054C000DFF80C1308605FF0FF30DFF808130860A6
:1054D0005FF0FF30DFF8001308605FF0FF30DFF8A7
:1054E000FC1208600098401C00900098B0F5007F06
:1054F000F8D38B48008840F4254050F001008849DB
:1055000008808848007864F302008649087084485F
:10551000008880B24FF6FE71084050F42540804963
:105520000880002000900098401C00900098B0F582
:10553000007FF8D30498DFF8981208600398DFF82A
:10554000941208600298DFF8901208600198DFF862
:105550008C120860DFF89002DFF8901208600020DB
:1055600000900098401C00900098B0F5007FF8D3A0
:1055700000F0A4FD06B010BD10440540843E0100BB
:1055800010B586B0040000200090DFF844020068E7
:105590000490DFF8400200680390DFF83C020068E6
:1055A0000290DFF8380200680190DFF83402DFF87B
:1055B0003C120860002C00F0B080E078217888422E
:1055C00032D36079217888422ED3A079217888421D
:1055D0002AD3E078A178884226D36079A1788842DE
:1055E00022D32079A179401A032823D02079A179E8
:1055F000401A02281ED02079A179401A012819D01A
:105600002079A179401A002814D0A0792179401A74
:1056100001280FD0A0792179401A02280AD0A07958
:105620002179401A032805D040F23B41DFF8C00140
:1056300000F0A2FB3B48007810F0070005281AD1C3
:10564000DFF8A001DFF8881108605FF0FF30DFF8B5
:10565000841108605FF0FF30DFF87C1108605FF0B4
:10566000FF30DFF8781108600098401C0090009827
:10567000B0F5007FF8D32A48008840F4254050F068
:10568000010027490880A078E17850EA01102179CB
:1056900050EA0120617950EA0130A17950EA0140D5
:1056A000617850EA0150217850EA0160217850EA8F
:1056B0000170DFF8401108601948008880B24FF689
:1056C000FE71084050F425401549088000200090E4
:1056D0000098401C00900098B0F5007FF8D3049823
:1056E000DFF8EC1008600398DFF8E8100860029813
:1056F000DFF8E41008600198DFF8E0100860DFF8D8
:10570000E800DFF8E8100860002000900098401CD6
:1057100000900098B0F5007FF8D306B010BD0000EF
:10572000FE43054026400540004105402A40054013
:105730003240054000127A00EC82FF1F40420F0009
:10574000C1F35E01001C4E0E011C4E0E10B504008C
:10575000E4B2002C11D0E4B2012C0ED0E4B2022C41
:105760000BD0E4B2032C08D0E4B2042C05D040F2F4
:105770003F61DFF87C0000F0FFFAE4B2002C05D0B6
:10578000022C0FD008D3032C12D017E0DFF86800EA
:10579000007810F0010016E0DFF85C000078C0F33C
:1057A000C00010E0DFF850000078C0F340100AE0BD
:1057B000DFF844000078C0F3801004E0DFF83C001C
:1057C000007810F00100C0B210BD0000FE4305409B
:1057D0000080044004800440088004400C800440A1
:1057E0000100A5A5EEFAFFFF0000A5A5108004406A
:1057F000843E0100204005403C40054041400540BA
:1058000040F22310DFF89010086043F21020DFF818
:10581000881008607047DFF880000068012809D10F
:1058200043F21020DFF87010086043F21020DFF818
:1058300068100860704710B50400002C22D0012CBD
:1058400020D0022C1ED0032C1CD0042C1AD0052CE6
:1058500018D0062C16D0072C14D0082C12D0092CE6
:1058600010D00A2C0ED00B2C0CD00C2C0AD00D2CE6
:1058700008D00E2C06D00F2C04D0DA21DFF81C0043
:1058800000F07AFADFF81800006864F30710DFF818
:105890001010086010BD000000040140C43E01006B
:1058A0000804014076205A4908600020704777209C
:1058B000574908600020704776205649086000204C
:1058C00070477720534908600020704770B5040086
:1058D000002000256078002818D06078012815D0B5
:1058E0006078022812D0607803280FD060780428EE
:1058F0000CD06078052809D06078062806D060783A
:10590000072803D0D221444800F036FAA0780028B6
:1059100018D0A078012815D0A078022812D0A0783D
:1059200003280FD0A07804280CD0A078052809D02F
:10593000A078062806D0A078072803D0D3213648BF
:1059400000F01AFAE07800280CD0E078012809D09D
:10595000E078022806D0E078032803D0D4212E482E
:1059600000F00AFA2079002806D02079012803D017
:10597000D521294800F000FA6079002806D0607926
:10598000012803D0D621244800F0F6F92678F6B293
:10599000002E01D1042537E0FFF789FFFFF791FFC3
:1059A000002011E0F6B2F1070BD51C4909686278B6
:1059B000A37852EA0312C0B2C3009A401143174AB7
:1059C0001160F6B27608401CC0B20428EAD32078F1
:1059D00080070ED5E0781249096860F31961104814
:1059E000016020790E49096860F310410C4801609C
:1059F00006E060790A49096860F30001084801601F
:105A0000FFF750FFFFF758FF2800C0B270BD00003D
:105A1000040805400C080540843F010000080540CB
:105A2000080805404AF20150DFF8EC100880704782
:105A30004FF42540DFF8E01008807047F8B5040007
:105A40000D0016001F000020E4B2002C13D0E4B2B9
:105A5000012C10D0E4B2022C0DD0E4B2032C0AD0F9
:105A6000E4B2042C07D0E4B2052C04D04FF41A7130
:105A7000274800F081F9F6B2002E15D0F6B2002EBC
:105A800002D0F6B20B2E0FDBF6B20E2E0CD0F6B211
:105A90000F2E09D0F6B2B6F120001C2804D340F234
:105AA00069211B4800F068F9FFB2002F07D0FFB250
:105AB000012F04D040F26A21154800F05DF9FFF78C
:105AC000B1FF002005E000220B8862F308230B8061
:105AD000401CC0B2102817D2012181402A0092B286
:105AE0000A42F5D0E4B24021C0B2820001FB042199
:105AF000084A5118F6B20A8866F305020A80FFB216
:105B0000012FE0D10122DFE7FFF792FF0020F2BD75
:105B1000043F0100023C0540FC3B054081B00422EB
:105B2000DFF868321B680093002811D0009A521EDB
:105B300000920268C2F3C012009B002B01D0002A21
:105B4000F4D0002A03D0C9B24160002200E009224B
:105B50001000C0B201B070472DE9F84F04000420D6
:105B6000DFF82C2212680123DFF828522D68C5F3D4
:105B70000215AB40B2FBF3F20123A56915F0030552
:105B8000EDB26D00AB40B2FBF3F80D005FF0000921
:105B9000B8F1000F76D0002D74D0E068C0F3C037A4
:105BA000404600F001FB0600280000F0FDFA5FF01F
:105BB000824100F00BFB8246380000F0F5FA01004C
:105BC0005FF0804000F06EFB514600F0FFFA0100EC
:105BD000300000F0DDFB704900F058FC8246504672
:105BE00000F096FC06005046002100F0A3FC01D313
:105BF000FF2E01D9042045E0300000F0D5FA010065
:105C0000504600F04FFB654900F0A6FC27D838004D
:105C10000021D0F1020271EB41030027701C57F103
:105C20000001A0FB02AB00FB03BB01FB02BB280091
:105C30000021A0FB0A2300FB0B3301FB0A334FF4C6
:105C4000006A5FF0000BAAFB02010AFB03110BFBC9
:105C500002114246002300F091FCB0F18009B9F135
